{
  "address": "0xDc64a140Aa3E981100a9becA4E685f962f0cF6C9",
  "abi": [
    {
      "anonymous": false,
      "inputs": [
        {
          "indexed": false,
          "internalType": "uint256",
          "name": "newValue",
          "type": "uint256"
        }
      ],
      "name": "ValueChanged",
      "type": "event"
    },
    {
      "inputs": [],
      "name": "clear",
      "outputs": [],
      "stateMutability": "nonpayable",
      "type": "function"
    },
    {
      "inputs": [],
      "name": "increment",
      "outputs": [],
      "stateMutability": "nonpayable",
      "type": "function"
    },
    {
      "inputs": [
        {
          "internalType": "uint256",
          "name": "_newValue",
          "type": "uint256"
        }
      ],
      "name": "load",
      "outputs": [],
      "stateMutability": "nonpayable",
      "type": "function"
    },
    {
      "inputs": [],
      "name": "retrieve",
      "outputs": [
        {
          "internalType": "uint256",
          "name": "",
          "type": "uint256"
        }
      ],
      "stateMutability": "view",
      "type": "function"
    },
    {
      "inputs": [],
      "name": "version",
      "outputs": [
        {
          "internalType": "uint256",
          "name": "",
          "type": "uint256"
        }
      ],
      "stateMutability": "pure",
      "type": "function"
    }
  ],
  "transactionHash": "0x5d3c2c7f817ce924fa4a3a1247243c1d959ba14ead84cd41526411e40b923814",
  "args": [],
  "numDeployments": 1,
  "solcInputHash": "862689996ac3256e630c0c0b25c693ea",
  "bytecode": "0x608060405234801561001057600080fd5b50610347806100206000396000f3fe608060405234801561001057600080fd5b50600436106100675760003560e01c806354fd4d501161005057806354fd4d501461009457806399d548aa146100b2578063d09de08a146100ce57610067565b80632e64cec11461006c57806352efea6e1461008a575b600080fd5b6100746100d8565b60405161008191906101d5565b60405180910390f35b6100926100e1565b005b61009c610122565b6040516100a991906101d5565b60405180910390f35b6100cc60048036038101906100c79190610221565b61012b565b005b6100d661016c565b005b60008054905090565b600080819055507f93fe6d397c74fdf1402a8b72e47b68512f0510d7b98a4bc4cbdf6ac7108b3c5960006040516101189190610293565b60405180910390a1565b60006003905090565b806000819055507f93fe6d397c74fdf1402a8b72e47b68512f0510d7b98a4bc4cbdf6ac7108b3c598160405161016191906101d5565b60405180910390a150565b600160005461017b91906102dd565b6000819055507f93fe6d397c74fdf1402a8b72e47b68512f0510d7b98a4bc4cbdf6ac7108b3c596000546040516101b291906101d5565b60405180910390a1565b6000819050919050565b6101cf816101bc565b82525050565b60006020820190506101ea60008301846101c6565b92915050565b600080fd5b6101fe816101bc565b811461020957600080fd5b50565b60008135905061021b816101f5565b92915050565b600060208284031215610237576102366101f0565b5b60006102458482850161020c565b91505092915050565b6000819050919050565b6000819050919050565b600061027d6102786102738461024e565b610258565b6101bc565b9050919050565b61028d81610262565b82525050565b60006020820190506102a86000830184610284565b92915050565b7f4e487b7100000000000000000000000000000000000000000000000000000000600052601160045260246000fd5b6102e6816101bc565b90506102f1826101bc565b9150600082820190508082111561030b5761030a6102ae565b5b9291505056fea26469706673582212201a4b21dc9f4c3b8f949cccba250647b62c2b172116e51e7fcbebdbb53eb88f8f64736f6c63430008140033",
  "devdoc": {
    "kind": "dev",
    "methods": {},
    "version": 1
  },
  "userdoc": {
    "kind": "user",
    "methods": {},
    "version": 1
  },
  "storageLayout": {
    "storage": [
      {
        "astId": 1571,
        "contract": "contracts/RegisterV3.sol:RegisterV3",
        "label": "value",
        "offset": 0,
        "slot": "0",
        "type": "t_uint256"
      }
    ],
    "types": {
      "t_uint256": {
        "encoding": "inplace",
        "label": "uint256",
        "numberOfBytes": "32"
      }
    }
  }
}